:020000022000DC
:10300000000001208DB20200B5B20200B7B202008A
:10301000B9B20200BBB20200BDB202000000000063
:10302000000000000000000000000000BFB202002D
:10303000C1B2020000000000C3B20200C5B202002B
:10304000F9680200C7B20200F5730200C7B20200BD
:10305000C7B20200C7B20200D16C0200C7B20200C0
:10306000C7B20200C7B20200C7B20200C7B2020074
:10307000C7B20200C7B20200C7B20200C7B2020064
:10308000C7B2020051450200C7B20200C7B2020037
:103090000D460200C7B2020095BD0200C7B2020091
:1030A000C7B20200C7B20200C7B20200C7B2020034
:1030B000C7B20200C7B2020000000000000000001A
:1030C000C7B20200C7B20200C7B20200C7B2020014
:1030D000C7B20200C7B20200C7B20200000000007F
:1030E00000000000000000000000000000000000E0
:1030F00000000000000000000000000000000000D0
:1031000000000000000000000000000000000000BF
:1031100000000000000000000000000000000000AF
:10312000000000000000000000000000000000009F
:10313000000000000000000000000000000000008F
:10314000000000000000000000000000000000007F
:10315000000000000000000000000000000000006F
:10316000000000000000000000000000000000005F
:10317000000000000000000000000000000000004F
:10318000000000000000000000000000000000003F
:10319000000000000000000000000000000000002F
:1031A000000000000000000000000000000000001F
:1031B000000000000000000000000000000000000F
:1031C00000000000000000000000000000000000FF
:1031D00000000000000000000000000000000000EF
:1031E00000000000000000000000000000000000DF
:1031F00000000000000000000000000000000000CF
:1032000010B5054C237833B9044B13B10448AFF320
:1032100000800123237010BD9C1E002000000000D0
:1032200090CB0200084B10B51BB108480849AFF31A
:1032300000800848036803B910BD074B002BFBD082
:10324000BDE81040184700BF0000000090CB02000E
:10325000A01E0020181E002000000000154B002BAF
:1032600008BF134B9D46A3F5803A00218B460F46BD
:103270001348144A121A08F086FE0F4B002B00D098
:1032800098470E4B002B00D09847002000210400E7
:103290000D000D48002802D00C48AFF3008008F064
:1032A00031FE2000290004F093FC08F017FE00BF57
:1032B00000000800000001200000000000000000E5
:1032C0009C1E00200C620020000000000000000096
:1032D000F0B595B0002415460F4608461E4603F08B
:1032E000C7F93846234605A9082208951A9D09966C
:1032F0000D950A948DF82C400C9403F017FA9DF864
:103300001430079806998DF8104003F00302012A43
:103310000290ADF80C102CD0022A04D0384603F0ED
:10332000B7F915B0F0BDBDF81650C3F3C202C3F330
:103330008003C5F389158DF80E208DF80F3008260F
:10334000082D2C4628BF08243346224638460EA9AD
:1033500003F0ECF92D1B21460EA802AA08AB264467
:1033600000F052FE002DEBD1384603F091F915B074
:10337000F0BDBDF81460059DC6F38316C3F3C20EFD
:10338000B2000EA9C3F3800438460823C5F395257F
:103390008DF80EE08DF80F4003F0C8F908AB0093EC
:1033A000284632460EA902AB00F096FDB6E700BFF4
:1033B000014B01221A707047B81E0020704700BFF1
:1033C00030B5114D114889B003F0D4FE0FCD6C46D5
:1033D0000FC495E80F00062584E80F004FF0FF3377
:1033E0004FF0EB740948009569460022019302935F
:1033F0000393069403F0D0FD08B100F085FF044B61
:1034000000221A7009B030BDC4BF0200881D002020
:10341000B91E002000B583B0044B0093044A40233A
:10342000FFF756FF03B05DF804FB00BF3534020020
:10343000BC1E002010B5094C09480023D2B22370ED
:1034400003F01EFF30B9074B1B7813B12378002B14
:10345000FCD010BD00F058FFF5E700BFB81E0020FB
:10346000881D0020B91E002030B5104D0FCD89B049
:103470006C460FC495E80F00062584E80F004FF056
:10348000FF334FF0EB740A480A4A009569460193EE
:1034900002930393069403F07FFD08B100F034FF1C
:1034A000054B01221A7009B030BD00BFC4BF020035
:1034B000881D0020B1330200B91E002010B5054C54
:1034C000FFF7D2FF2046042100F0C6FC01236372FF
:1034D00010BD00BF901D002008B5104B1048002201
:1034E000FF21C3F8182499601A605A60C3F81424A5
:1034F00083F81C2403F074F870B90A4B0A4A9A1A2C
:10350000D20807D0094903460B520133934200F118
:103510000C00F9D1002008BD08BD00BFFC1E002032
:10352000F4BF0200ECCB0200A4CB02001C1E002062
:1035300021B9124A02EBC0000068704730B410494C
:103540000E4D491BC9080ED00E4B5A88824218BF37
:10355000002205D10FE0DC89844203F10C0305D081
:1035600001328A42F7D1002030BC704705EBC2001F
:10357000006830BC70472846FAE700BFA4CB0200C1
:10358000ECCB02001C1E0020094B013903EBC000EC
:1035900003290BD8DFE801F0020806040220704777
:1035A00040797047007970470420704700207047C9
:1035B000A4CB02002DE9F04F874C626823689A4241
:1035C00085B042D00023C4F81834BFF34F8F606831
:1035D000A56805EA0003023304EB8302111D12798A
:1035E00012F0030F024610D10B884988C3F38913E8
:1035F00003EB911301331A4402EA0503023304EB8F
:103600008306311D3679B607EED004EB8303511CD7
:103610005B680193294004EB810103F00303C9684F
:103620000291022B02F102086B4F12D0012B6DD0D8
:10363000032B06D02368181A18BF012005B0BDE877
:10364000F08FD7F81834002BF4D1002005B0BDE876
:10365000F08FBDF806306148C3F38919B9F1500FF6
:10366000CA46A8BF4FF0500A6AF38F130AF1080147
:10367000ADF8063002F0B6FF0646002800F087805D
:1036800025EA080B0BF1010B02F0F2FF4FEA8B0B5E
:10369000304601A90822002303F020F8DA4540F261
:1036A0008E80BBF1000F74D107F10C0152463046F9
:1036B000082303F013F809F1030708EB9707D4F880
:1036C0001834DFF81481D4F81054002B59D14DB1BF
:1036D0006B7A2846314613B12B681B6898476D6892
:1036E000002DF5D1304602F0D3FF04A8002300F8E6
:1036F0000D3D01F007FCD4F81834374A03B9576080
:103700009DF8030001F026FC606893E7BDF80430E3
:103710003248C3F38312062A28BF0622911C62F3A3
:1037200089138900ADF8043002F05CFF064670B3DF
:1037300002F09EFF0023304601A9082202F0CEFFCE
:10374000BDF8043013F4707F44D04FF0000A4FF0FE
:10375000080908EA050104EB81014B460C313046AB
:10376000042202F0BBFFBDF804300AF1010AC3F3E2
:10377000831308F10107534509F10409B846E8D855
:103780009DE7304602F084FFD8F8040052E77868DD
:1037900050E708EA050107EB8101CBEB0A0530464B
:1037A0005A460C31EDB2082302F098FF30462A4603
:1037B00007F10C010BF1080302F090FF7BE708EA28
:1037C000050107EB81010C3152463046082302F017
:1037D00085FF70E7474672E7FC1E0020F4BF020039
:1037E0002DE9F04F89B008AB00265B4C03F80D6D56
:1037F00002901846A3680391019301F083FBA5682A
:103800006168D4F800806B180133C8EB0303032B05
:103810005ED805F10109B646C8EB090904F5836CC9
:1038200004F214470126A2465CE8003F43EA060280
:103830004CE8002090F0000FF6D157E8003F43EA33
:10384000060247E8002090F0000FF6D101EA0503D8
:10385000023304EB8302101D127912F0030F0A46A3
:1038600013D103884088C3F3891303EB901301330A
:103870001A4402EA0503023304EB830B0BF1040044
:103880009BF804B01BF0030FEBD004EB8303023270
:103890005B68059303F00303012B57D0022B06D17D
:1038A000BDF81630C3F38913033302EB930257E8D4
:1038B000003F03EA0E0047E8000B9BF0000FF6D133
:1038C00013B1CAF80420114609EB0103032BABD94D
:1038D00005EA0803023304EB83039DF813001A7909
:1038E00042F003021A7123680233236001F032FBB5
:1038F000019B029D08F101021A4008EA030304EB50
:103900008202023304EB8303290CD1601A79C5F3D8
:10391000001161F3820265F3C5021A719A886FF390
:1039200089129A805A68039961F39F2211460120F7
:1039300060F301015A60197194F81C341BB1FFF750
:1039400039FE0028FBD109B0BDE8F08FBDF8143076
:10395000C3F383131A44AAE7FC1E00202DE9F04F9D
:1039600089B008AB00265F4C03F80D6D0190184636
:10397000A36802910093039201F0C4FAA5686168FC
:10398000D4F800806B180133C8EB0303042B5ED816
:1039900005F10109B646C8EB090904F5836C04F288
:1039A00014470126A2465CE8003F43EA06024CE8C1
:1039B000002090F0000FF6D157E8003F43EA0602DE
:1039C00047E8002090F0000FF6D101EA050302332A
:1039D00004EB8302101D127912F0030F0A4613D173
:1039E00003884088C3F3891303EB901301331A440F
:1039F00002EA0503023304EB830B0BF104009BF88E
:103A000004B01BF0030FEBD004EB830302325B68BE
:103A1000059303F00303012B5ED0022B06D1BDF802
:103A20001630C3F38913033302EB930257E8003FC8
:103A300003EA0E0047E8000B9BF0000FF6D113B12C
:103A4000CAF80420114609EB0103042BABD905EA9F
:103A50000803023304EB83039DF813001A7942F044
:103A600003021A7123680333236001F073FA009B89
:103A7000019D039E08F1020108F1010219401A405C
:103A800008EA030304EB810104EB8202023304EB36
:103A90008303280CCE60D0601A79C5F3001161F35E
:103AA000820265F3C5021A719A88012060F38912B7
:103AB0009A805A68029961F39F22114660F30101CE
:103AC0005A60197194F81C341BB1FFF773FD00287C
:103AD000FBD109B0BDE8F08FBDF81430C3F38313F8
:103AE0001A44A3E7FC1E00202DE9F04F8BB00AAD6D
:103AF0000026644C05F80D6D029005932846A368D6
:103B000003910193049201F0FDF9A5686168D4F86E
:103B100000806B180133C8EB0303052B5ED805F159
:103B20000109B646C8EB090904F5836C04F2144791
:103B30000126A2465CE8003F43EA06024CE800206A
:103B400090F0000FF6D157E8003F43EA060247E83D
:103B5000002090F0000FF6D101EA0503023304EBD8
:103B60008302101D127912F0030F0A4613D1038845
:103B70004088C3F3891303EB901301331A4402EA1C
:103B80000503023304EB830B0BF104009BF804B034
:103B90001BF0030FEBD004EB830302325B68079347
:103BA00003F00303012B66D0022B06D1BDF81E30B3
:103BB000C3F38913033302EB930257E8003F03EA90
:103BC0000E0047E8000B9BF0000FF6D113B1CAF8C6
:103BD0000420114609EB0103052BABD905EA0803C4
:103BE000023304EB83039DF81B001A7942F00302B1
:103BF0001A7123680433236001F0ACF9019B029E23
:103C0000049F08F10200184008F1030108F10102C5
:103C100019401A4004EB800008EA030304EB810119
:103C200004EB82020233C76004EB83030598C8608B
:103C3000350CD5601A79C6F3001161F3820266F380
:103C4000C5021A719A88022161F389129A805A6812
:103C5000039961F39F221146012060F301015A602C
:103C6000197194F81C341BB1FFF7A4FC0028FBD198
:103C70000BB0BDE8F08FBDF81C30C3F383131A44BA
:103C80009BE700BFFC1E00202DE9F04F8DB00DF129
:103C9000300E00266F4C0EF81D6D169D179F01907B
:103CA00009937046A368039102930A9508920B97B3
:103CB00001F028F9A5686168D4F800806B18013319
:103CC000C8EB0303072B5ED805F10109B646C8EB24
:103CD000090904F5836C04F214470126A2465CE846
:103CE000003F43EA06024CE8002090F0000FF6D1B6
:103CF00057E8003F43EA060247E8002090F0000F33
:103D0000F6D101EA0503023304EB8302101D127998
:103D100012F0030F0A4613D103884088C3F38913B6
:103D200003EB901301331A4402EA0503023304EB58
:103D3000830B0BF104009BF804B01BF0030FEBD0D6
:103D400004EB830302325B68059303F00303012B4A
:103D500079D0022B06D1BDF81630C3F38913033393
:103D600002EB930257E8003F03EA0E0047E8000B1E
:103D70009BF0000FF6D113B1CAF80420114609EBED
:103D80000103072BABD905EA0803023304EB8303D5
:103D90009DF813001A7942F003021A712368063362
:103DA000236001F0D7F8029B089D08F102021A4037
:103DB00008F1030C08F1040E08F1050708F10106EB
:103DC0000CEA030C0EEA030E1F401E4009A808EA85
:103DD000030304EB820807C8C8F80C50019D04EBEC
:103DE0008C0C04EB8E0E04EB870704EB8606023383
:103DF00004EB83032D0CCCF80C00CEF80C10FA6009
:103E0000F560019D1A79C5F3001161F3820265F333
:103E1000C5021A719A88042161F389129A805A683E
:103E2000039961F39F221146012060F301015A605A
:103E3000197194F81C341BB1FFF7BCFB0028FBD1AF
:103E40000DB0BDE8F08FBDF81430C3F383131A44EE
:103E500088E700BFFC1E002030B4144DD5F8104494
:103E6000002154B1237A8B4214D0234602E01A7AFF
:103E70008A420FD05B68002BF9D10172D5F810345B
:103E80000A4A7BB15B684360D2F810345860084638
:103E900030BC704701310A29E3D14FF0FF310846A9
:103EA00030BC7047C2F810044360F0E7FC1E0020ED
:103EB00038B5084BD3F81044012583F81C543CB1A5
:103EC0002368657220465B6898476468002CF7D1C8
:103ED00038BD00BFFC1E00202DE9F04784B01D4610
:103EE0000C9C002394F80C802373EB7981460E46DA
:103EF00017460BB3062F0FD8DFE807F0363B4148D3
:103F000004515E00B168F06896E80C0000910190E1
:103F10004946204601F07EFEEB792BB92B7AEBB9AE
:103F20002046334901F076FE204601F067FE84F812
:103F30000C8004B0BDE8F0872B7A002B4BD1AA7916
:103F40002C4BA88853F822A00021FFF7F1FA524623
:103F500003462949204601F05DFECBE7204627496C
:103F6000274A01F057FEDBE74946204601F052FEA2
:103F7000D2E749463268204601F04CFECCE749467C
:103F8000204696E80C0001F045FEC5E7B16896E8CA
:103F90000C0020460091494601F03CFEBCE7B168A8
:103FA0003069F76896E80C00009102904946019745
:103FB000204601F02FFEAFE796E80C00B168F068EC
:103FC0003769766903960091019049460297204629
:103FD00001F020FEA0E7A979A888FFF7D5FA094BE0
:103FE000064953F82020204601F014FEA7E700BF41
:103FF00058C0020008C0020044C0020040C00200D5
:1040000050C002001CC00200082951D82DE9F04719
:104010001D46002395F80C902B73D37990460746E4
:104020000E46002B45D0002405E03A5D013401F036
:10403000F1FD082C0AD0A64228463049F5D828467A
:104040002F49013401F0E6FD082CF4D128462D4912
:10405000DFF8D4A001F0DEFD00240DE03A5DDAF8CF
:104060000030134401345B7813F0970F08BF2E2201
:1040700001F0D0FD082C0AD0A64228462249EDD8EE
:1040800028462249013401F0C5FD082CF4D198F8E6
:10409000073013B998F80830F3B928461C4901F0E5
:1040A000B9FD284601F0AAFD85F80C90BDE8F0871F
:1040B0007047137AB3B998F80620164BB8F8040085
:1040C00053F822400021FFF733FA224603461249F3
:1040D000284601F09FFDA6E728461049104A01F046
:1040E00099FDDAE791799088FFF74EFA0D4B0B496D
:1040F00053F82020284601F08DFDDCE75CC002006B
:1041000064C0020068C002006CC002004CC0020023
:1041100058C0020008C0020044C0020040C00200B3
:1041200050C002001CC00200AC1D00202DE9F84F59
:10413000234B1A788AB3DFF88CB0DFF88C80DFF875
:104140008C9000244FF0010A03E00134E4B2944261
:1041500023D226B2D8F80050DBF8003015F836002C
:104160000AFA00F1194205EBC607EED0154A23EA18
:104170000103136002F0A2FD15F83650D9F80030A3
:104180000AFA05F10B4000FA05F18B4207D00C4BFF
:1041900001341A78E4B29442DBD3BDE8F88F797821
:1041A0007B68A1F10101B1FA81F14909002BEED040
:1041B000091A2846B1FA81F149099847E7E700BF93
:1041C000F42300201C240020F023002018240020C9
:1041D00070B50646114800F059FE40B9104D012453
:1041E0002B68B4401C4203D023EA04042C6070BD49
:1041F000304602F063FD0B4E326860B122432B68FB
:10420000094932601C432C60044809680022BDE85B
:10421000704000F0E1BD22EA0402F0E7F82300203C
:104220001C24002018240020EC230020F0B5042AD0
:1042300085B0174602D8072005B0F0BD01910546AC
:1042400002F006FC0199002830D01C4CDFF888E011
:104250001B481C4A1C4B256000264C1E07608EF82C
:10426000001016601E60E4B2032709B918E01C466E
:1042700023B205EBC30215F833009378134A8DF887
:104280000D3003A98DF80C708DF80E608DF80F605D
:1042900002F0E8FB631E0028CED1DBB2002CE6D191
:1042A0000B4A0C48002100F085FDC5E7019102F0A2
:1042B0008DFB01990028C8D0BEE700BFF023002085
:1042C000EC230020182400201C240020D1410200EF
:1042D0002D410200D0C00200F423002070B5084D2B
:1042E0002B785BB1074E00243368012113F83400AA
:1042F00002F082FC2B780134A342F5D8002070BD77
:10430000F4230020F023002000B585B000230390A3
:10431000194644F2010001AAADF80430029300F0FE
:1043200003F805B05DF804FB10B5FFF7C1FDFFF71A
:1043300041F90028FBD1104C10492088000440F0BE
:104340000100FFF74DFA0E4B1B68DB0700D5FFDEBF
:1043500020880C49000440F00200FFF741FABFF347
:104360004F8F0949094BCA6802F4E0621343CB60DE
:10437000BFF34F8F00BFFDE71C1E0020D4C002001A
:10438000F0ED00E0E0C0020000ED00E00400FA05FE
:1043900012F0030301D0072070472DE9F0414C1CB7
:1043A0000546DFF83C800B480B4F0C4EDFF834C05D
:1043B000DFF834E088F80030E400A4B2144403705D
:1043C0003D803180CCF80040CEF800201846BDE892
:1043D000F08100BF2A240020282400202C24002063
:1043E0002B24002024240020202400202DE9F04745
:1043F0002C4D2B888B4282B00C4603D2092002B090
:10440000BDE8F087064602A84FF0000800F8018DCD
:10441000174600F077FD244B244A25481978137875
:104420000088DBB2834238BF0133C9B238BF5FFABC
:1044300083F841451FD092F800801378DFF8789018
:10444000DBB283423ABF0133DBB200235FFA88F864
:104450009DF80700137000F07DFDD9F800300FFAC9
:1044600088F24FEAC20A43F83270534406B144B9A5
:1044700000209880C3E79DF8070000F06BFD042042
:10448000BDE70C4B28881B68314600FB08302246EC
:1044900007F06EFDD9F800309A440020AAF80440D5
:1044A000ADE700BF282400202A2400202B24002070
:1044B0002C24002024240020202400202DE9F04773
:1044C000174F184C3A7823789A4226D0DFF85C9040
:1044D000DFF85C80144EDFF85CA03B78D9F8002050
:1044E0003088D8F80050DBB20FFA83FC02EBCC0125
:1044F00000FB0350898852F83C3098473B78BAF863
:104500000020DBB29A4203F101038CBFDBB200232F
:104510003B703A7823789A42DFD1BDE8F08700BF3C
:104520002A2400202B2400202824002020240020DE
:10453000242400202C240020082910B5044602D091
:104540000020FFF7E1FE23686068BDE810401847CF
:10455000F0B5264A264B0025C2F84051C2F8445116
:10456000C2F84851C2F84C51C2F80051C2F8045187
:104570001B6883B013B31F49D2F804250C68141BC1
:104580001A6824F07F44A2422F4609D8197CDE69BC
:10459000A41A1544A1B91EB133461A68A242F5D92E
:1045A000154B16491A780B789A4218D01449154AB7
:1045B00041F823504FF48013C2F8003103B0F0BD2E
:1045C00099691F7401915B690F4A0093684608213D
:1045D000FFF70CFF0028DED0FFF796FEDBE7531C49
:1045E000DBB2022B08BF00230B70DFE70010014095
:1045F00034240020302400203824002039240020D6
:104600004825002000E100E0394502002DE9F04F87
:104610007D4A7E49137809787D48994287B00668BB
:1046200000F0E8810133DBB2022B08BF0023794997
:104630001370794A0291084652F8231003687448AF
:104640008A19002522F07F420260AE462846A3B1B7
:104650001A688A4200F2D681DC68C3F800E0891A41
:104660001044DA6934B1871927F07F47DD619C6017
:104670005F601D461346002BEAD1029A0493136033
:10468000049C01230593654BDFF894811B7801930B
:10469000029BDFF890C11F685D4BBB46D3F800A0BA
:1046A0002F4600230093C1461E464FF0010E37B33C
:1046B0007A68B9683D46FF69CAEB020323F07F437D
:1046C00063453CD80B442B606E60AE6085F810E00B
:1046D000EE61002C67D021688B4242D9204603E06E
:1046E0001168994244D21046C2695B1A002AF7D178
:1046F0002B60EA612346C5611C46002FD8D198F88B
:10470000003098F801209A4200F08E805A1C03EB8A
:10471000430308EBC30399F802109D68D2B291429B
:1047200089F800201A7908BF89F80070022A48D059
:10473000032A3CD0012A22D023461C46DDE7C2EBE7
:104740000A0222F07F428A4202D28B1A2B60BBE718
:104750002E606E60AE6085F810E0EE611CB32168DB
:104760000023CB1A23602B46EC61AB461C46C4E702
:10477000C91A11602B60EA612346C561BCE72A7C37
:104780000392002AD8D1DA686A601969A960586969
:10479000E86010339B68AB61019B002B8CD0039BBE
:1047A0006B601A4688E72B46AB461C46A5E70CB95A
:1047B000C2E71C46E3692674002BFAD19B461C46CF
:1047C0009BE754B1A54200F00881234602E09542E0
:1047D00007D01346DA69002AF9D123462E741C4605
:1047E0008BE7AB4200F0FA80E9692868D9610029BB
:1047F000F3D023460A6802440A60009A2E749C4251
:1048000018BF01220092EAE7382400203924002052
:104810003024002034240020482500203A240020A1
:104820003C240020FEFF7F00029B9DF80420C3F87B
:1048300000B0764BC3F800A0754B1A70009B1BB9F3
:10484000049BA34200F0D081002C00F03C81714D0C
:104850006E4BD5F804051B686F4ED4F800C0317854
:10486000C21A22F07F420332002952D16B4FDFF887
:10487000B091DFF8B0814FF480314FF4003E012455
:10488000C5F84413C5F80413C7F880E1C7F800E081
:104890002C602F21D9F8005000BF00BF00BF00BF1F
:1048A00000BF00BF00BF00BF45452FD000BF00BF05
:1048B00000BF00BF00BF00BF00BF00BF00BF00BF00
:1048C00000BF00BF00BF00BF00BF00BF00BF00BFF0
:1048D00000BF00BF00BF00BF00BF00BF00BF00BFE0
:1048E00000BF00BF00BF00BF00BF00BF00BF00BFD0
:1048F00000BF00BF00BF00BF00BF00BF00BF00BFC0
:1049000000BF00BF00BF00BF00BF00BF0139C3D15F
:10491000347062452CBF9A1803EB0C023D4922F01B
:104920007F43C1F84035D1F80425121A1B1A22F032
:104930007F4223F07F4303329A4248D9D1F80435AD
:10494000374AC1F84035126836492F2300BF00BFEF
:1049500000BF00BF00BF00BF00BF00BF8A422FD012
:1049600000BF00BF00BF00BF00BF00BF00BF00BF4F
:1049700000BF00BF00BF00BF00BF00BF00BF00BF3F
:1049800000BF00BF00BF00BF00BF00BF00BF00BF2F
:1049900000BF00BF00BF00BF00BF00BF00BF00BF1F
:1049A00000BF00BF00BF00BF00BF00BF00BF00BF0F
:1049B00000BF00BF00BF00BF00BF00BF00BF00BFFF
:1049C000013BC3D1154B4FF40032C3F80021104A0C
:1049D0000023137007B0BDE8F08F2246D4F81CB056
:1049E000BBF1000F22D0D16910685B4600297FF42B
:1049F00001AF02E70C4B02931B6804930025059559
:104A00001C4640E6521A1A6037E600BF30240020E8
:104A10003A240020001001405025002000E100E071
:104A2000A81D00200024F400342400207549764B92
:104A3000C1F808E075492F20096800BF00BF00BF1A
:104A400000BF00BF00BF00BF00BF99422FD000BF12
:104A500000BF00BF00BF00BF00BF00BF00BF00BF5E
:104A600000BF00BF00BF00BF00BF00BF00BF00BF4E
:104A700000BF00BF00BF00BF00BF00BF00BF00BF3E
:104A800000BF00BF00BF00BF00BF00BF00BF00BF2E
:104A900000BF00BF00BF00BF00BF00BF00BF00BF1E
:104AA00000BF00BF00BF00BF00BF00BF00BF013894
:104AB000C3D1D1691068002900F09B800122DA4639
:104AC0005B46019296E64F4A514B504E4E484FF48A
:104AD00080314FF400370125C3F88070C2F84813C5
:104AE0002F23C2F80813556031681E4600BF00BF6F
:104AF00000BF00BF00BF00BF00BF00BF81422FD07A
:104B000000BF00BF00BF00BF00BF00BF00BF00BFAD
:104B100000BF00BF00BF00BF00BF00BF00BF00BF9D
:104B200000BF00BF00BF00BF00BF00BF00BF00BF8D
:104B300000BF00BF00BF00BF00BF00BF00BF00BF7D
:104B400000BF00BF00BF00BF00BF00BF00BF00BF6D
:104B500000BF00BF00BF00BF00BF00BF00BF00BF5D
:104B6000013EC3D195602B4A146000BF00BF00BF57
:104B700000BF00BF00BF00BF00BF81422FD000BFF9
:104B800000BF00BF00BF00BF00BF00BF00BF00BF2D
:104B900000BF00BF00BF00BF00BF00BF00BF00BF1D
:104BA00000BF00BF00BF00BF00BF00BF00BF00BF0D
:104BB00000BF00BF00BF00BF00BF00BF00BF00BFFD
:104BC00000BF00BF00BF00BF00BF00BF00BF00BFED
:104BD00000BF00BF00BF00BF00BF00BF00BF013B60
:104BE000C3D10D4B1C70F2E6059B002B3FF4EFAEDA
:104BF0002AE601231A4601938A468B460B46009209
:104C00002E74ECE5001001400024F400A81D0020E3
:104C100000E100E030240020502500202DE9F04381
:104C20005A4B5B4A5B4D5C4E4FF480344FF400317D
:104C30000120C2F88010C3F848432F21C3F808436D
:104C400058602D680C4600BF00BF00BF00BF00BF0A
:104C500000BF00BF00BFB5422FD000BF00BF00BFE4
:104C600000BF00BF00BF00BF00BF00BF00BF00BF4C
:104C700000BF00BF00BF00BF00BF00BF00BF00BF3C
:104C800000BF00BF00BF00BF00BF00BF00BF00BF2C
:104C900000BF00BF00BF00BF00BF00BF00BF00BF1C
:104CA00000BF00BF00BF00BF00BF00BF00BF00BF0C
:104CB00000BF00BF00BF00BF00BF013CC3D1374CE5
:104CC00098600020206000BF00BF00BF00BF00BF91
:104CD00000BF00BF00BFB5422FD000BF00BF00BF64
:104CE00000BF00BF00BF00BF00BF00BF00BF00BFCC
:104CF00000BF00BF00BF00BF00BF00BF00BF00BFBC
:104D000000BF00BF00BF00BF00BF00BF00BF00BFAB
:104D100000BF00BF00BF00BF00BF00BF00BF00BF9B
:104D200000BF00BF00BF00BF00BF00BF00BF00BF8B
:104D300000BF00BF00BF00BF00BF0139C3D1184D85
:104D40001849DFF86490DFF86480DFF864C02870E9
:104D50004FF48016E0254FF00B0E1F27C9F8000016
:104D600088F800008CF800000870487081F802E0B4
:104D7000C2F8806182F814531660C3F8087582F88F
:104D80001153D3F804352360BDE8F08300100140CF
:104D900000E100E0A81D00200024F40030240020E1
:104DA000502500203C2400203424002038240020FA
:104DB00039240020074B9B780BB9082070473AB183
:104DC00030B10368187C0028F7D159745A617047D4
:104DD000072070473C2400202DE9F043284CA3789D
:104DE00083B01BB9082003B0BDE8F0830028F9D0D8
:104DF000042903D8072003B0BDE8F0834369002BE2
:104E0000F0D0064602A8737C0025012B00F8015D56
:104E10000CBF8946A94690460F4600F073F86378A8
:104E2000A07821785A1CD2B2904208BF2A469142FB
:104E30001FD003EB430304EBC30319464FF0010EED
:104E400041F8086F0F4883F804E0D0F804654E601D
:104E50008F609DF80700C3F81490C3F81880627043
:104E600000F078F8084B4FF480122846C3F8002170
:104E7000B9E79DF8070000F06DF80420B3E700BF24
:104E80003C2400200010014000E100E070B51B4C04
:104E9000A37882B013B9082002B070BD0028FAD000
:104EA0004369002BF7D0064602A8002500F8015DF3
:104EB000357400F027F86278A0782178531CDBB2B3
:104EC000984208BF2B46994212D002EB420204EBF3
:104ED000C20202219DF8070096601171637000F014
:104EE00039F8074B4FF480122846C3F80021D3E766
:104EF0009DF8070000F02EF80420CDE73C240020A8
:104F000000E100E0F0B4EFF3108472B60E4B9A6843
:104F1000B2B90E4901259D60D1F880700C4D2E4626
:104F20003D401D60C1F88060D1F884505D604FF055
:104F3000FF33C1F88430027004B962B6F0BC704728
:104F400001230370F8E700BFE861002000E100E002
:104F5000FC06FFBD094B9A6872B168B910B4EFF353
:104F6000108272B606491C680C605C684C609860E0
:104F700002B962B65DF8044B704700BFE8610020DB
:104F800000E100E0F0B543684BB1374AD468A34272
:104F900005D31269934202D813F0030246D00023CE
:104FA000DFF8CCE00B804FF0010C4FF6FF75DEF818
:104FB0000470002307F58054002B34D05A88033244
:104FC00003EB82039C4209D8BCF1020FA1F800C098
:104FD0000EF1140E46D04FF0020CE8E71A680132C9
:104FE000F2D05A88033203EB82029442ECD39E88BB
:104FF000AE420BD01E884EB19E6802689642DBD14D
:105000001A4A4360138903810120F0BD9442DBD921
:10501000136801331346D7D05688033602EB860255
:105020009442D1D3E3E707F10803CBE70F4C05899E
:105030002489A542B3D105689C68A542AFD10C4C28
:105040006068834203D900F58050834207D3A26988
:10505000934207D902F58052934203D201220A807B
:105060000120F0BD0020F0BD881E00208825002012
:10507000602500202DE9F04FDFF8C0A2A54EDFF833
:10508000B8928BB00446D3463568002D00F0FE8000
:105090002A78531E052B00F2D082DFE803F0404D42
:1050A0004D1C1C03002C40F0C5809AF80C30002BDE
:1050B00000F0BC819BF800308BF80C40013B062BC4
:1050C00000F2BB82DFE813F0DD02690265014A01EC
:1050D000B902A0029F01002C40F0AC802B79012B7B
:1050E00000F0D481C0F0BA81022B41F61D5418BFE4
:1050F0000F2405AF38460021142206F044FF41F684
:105100001D539C4208BF0024326806941378013B6B
:10511000052B30D8DFE803F064685082772C002C30
:1051200040F099802B79032B00F2AB80DFE813F07D
:105130000801E000D300B600AF8A002C7CD14FEA12
:10514000870808EB070309EB8303A87D19895C68CE
:10515000DFF8E4C104EB8104062800F22D83DFE8C8
:1051600010F030010402A701DE01F601C101440183
:1051700005238DF81430684D05F1100855F8043BEF
:10518000384603B198474545F8D100236349644840
:10519000336000F0C3FC634B012253E8000FA0EB27
:1051A000020143E8001595F0000FF6D100297FF4C5
:1051B0006BAF0BB0BDE8F08F02238DF8143013896C
:1051C000ADF820309388ADF82230D3680793937DF3
:1051D000A3F10603B3FA83F35B098DF82430CAE721
:1051E00000238DF81430C6E701238DF8143013899D
:1051F000ADF820309388ADF82230D36807930023B0
:105200008DF82430B7E704238DF81430D388ADF837
:1052100020300023ADF822300793ACE703238DF84C
:105220001430D388ADF820301389ADF82230D3681C
:105230000793A0E701245CE707EB870709EB8707E3
:10524000E8883A897B890244033B03321B1A3A817E
:105250007B8101244DE7344B00225A60012448E74A
:1052600001239A00134409EB83020024516809F8D2
:10527000234000942D482E4A082300F0DFFF002829
:1052800097D0294B00225A600E2432E72448234944
:1052900000F014FC1F4B05461860F9E6254C244A23
:1052A0002168224800272F710823009700F0C6FFCD
:1052B000BAF802302568A18803EB830309EB830267
:1052C00009F8237053682360022355601181A3807D
:1052D0000028D6D16DE7174C1448216800232B71A4
:1052E00001220225A58000F0E1FF0028C9D160E776
:1052F00099F80030022B00F0F0820F4B1B7D022B3F
:10530000AED0094B01210022197041F61D545A609C
:10531000EFE600BFC0250020C42500209C2500200A
:10532000A825002098250020B8250020881E0020F0
:10533000F4C00200A0250020602500208825002060
:10534000BF4BC0481968C04A012300242B710823B1
:10535000009400F073FF002893D12AE7BAF80230D6
:1053600003EB830309EB8302D368002B00F07C81FD
:10537000B34CB44821680227052501220023A780E9
:105380008AF8005000F092FF0446002C7FF4B1AE82
:105390000FE7AB48DAF80420818805685388A948EC
:1053A000033300249BB200949B00032405EB81018E
:1053B0008AF8004000F042FF0446002C7FF499AECA
:1053C000F7E602220023AA75214600939D482A1D74
:1053D000042300F033FF00283FF4EBAE08EB070393
:1053E00009EB83030E24198901E041F61D5447445B
:1053F00009EB8707ED887B89EA1C033B11445B1BA3
:1054000039817B8175E68E4B8E4819688E4A00245F
:10541000009407250823CAF804408AF8005000F0D9
:105420000DFF0446002C7FF464AEC2E69BF800300A
:10543000072B3FF643AE01A252F823F013570200A8
:10544000BD500200BD500200E35602004B5702005F
:105450000754020007540200D756020002232B71A2
:105460000AAF059406940794EB6847F8143D0DF1D4
:1054700012013846FFF786FD002840F008820A2412
:1054800038460021142206F07EFD3DE66F4B1B7866
:10549000002B40F09381214608226D4805AF06F0AD
:1054A00072FD21463846142206F06DFD02242BE6DB
:1054B0002B696448002B14BF032201220023AA7524
:1054C00004F10801009305F10C02042300F0B6FE7C
:1054D00000283FF46EAE08EB070309EB83030E24AC
:1054E000198984E75B4B5C4A1C88516855485B4AC4
:1054F000CDF808C04FF0060E002385F816E00093A3
:10550000042300F09BFEDDF808C000287FF466AF9E
:1055100004EB84040CEB840301221A7449E6EB8843
:105520002A6948484FF0010E04F10C01002485F867
:1055300016E09B00009400F081FE00283FF439AE95
:1055400008EB070309EB83030E2419894FE7424B4D
:10555000AA691A603F49002218465A60FFF712FDF7
:1055600000287FF42EAF0A24C3E5032A0CBF0522CE
:1055700006220023AA75211D0093324805F1080276
:10558000042300F05BFE00283FF413AE08EB070392
:1055900009EB83030E24198929E7BAF80230DAF8F7
:1055A0000420DFF8C0C09C00E11809EB81014968C4
:1055B00001F58055002A00F08D815088033002EB00
:1055C0008002AA4280F0E4801068013000F0E080A0
:1055D0005088033002EB8000A84200F2D9804FF6D9
:1055E000FF77B2F804E0BE4500F0C380B2F800E0F7
:1055F000BEF1000F00F0BD80114CCAF804205388A2
:105600001048A1882568CBE6BAF80230DFF854C00C
:105610009A0013440CEB830C0023DCF80410009375
:1056200006238AF8003007480D4A082300F006FEDA
:105630000446002C7FF45DADBBE50F2459E500BFA7
:10564000A0250020881E0020FCC00200B8250020F4
:10565000D42500205225002054250020F0C002004F
:10566000F4C00200602500205168BC4804240122D7
:105670008AF8004000F01AFE0446002C7FF439AD91
:1056800097E59AF80A3063B1D9F80C30DFF8DCC23C
:1056900000228AF80A2023B99CF81020002A40F042
:1056A00067819AF80B3063B1D9F82030DFF8BCC2BB
:1056B00000228AF80B2023B99CF82430002B40F0FC
:1056C0000E8100238AF80030AAF80230CAF80430AC
:1056D00041F61D540DE501238AF800309AF80A308E
:1056E000D1E7BAF802309E4FDAF80420B988508822
:1056F000DFF878C29C00E51809EB85050844696865
:1057000003304FF0020E01F58055B8808AF800E0B2
:1057100053E7BAF8081099F8003099F81420B3FA52
:1057200083F30020B2FA82F25B09520901310124AD
:105730008AF80A308AF80B20AAF80810AAF80200A2
:105740008AF80C008AF800409DE7BAF802308448D5
:10575000DFF818C2056887889A00D11809EB810123
:105760004FF0020E4C6804604D600F81A0F804E019
:105770004FE785420CD902680132024608D0B0F8E2
:1057800002E00EF1030E00EB8E008542BFF429AF5C
:1057900023440CEB830308335B68002B7FF4E8ADF4
:1057A00004228AF800206D48012200F07FFD0446A3
:1057B000002C7FF49EACFCE40F2418E6694A97881D
:1057C000012F13D8DFF8A4C1CDF80CC04FEA870C25
:1057D0000CEB070309EB830119F8233073B17B1C31
:1057E0009BB2022B93804FF00107EFD15D4800215F
:1057F000082206F0C8FB41F61D547AE44B68029378
:105800001946136801F58050002B58D05988033190
:1058100003EB8101814238D20B68013335D04B88CC
:10582000033301EB830383422FD8B1F804E04FF632
:10583000FF78C6451BD0B1F80080B8F1000F16D034
:10584000B5F806801160F0450B46DDD100230093CA
:1058500064464248DDF80CC0434ACDF808C0042332
:1058600000F0ECFCDDF808C068B30E2441E483428C
:105870000BD219680131194607D0B3F802E00EF1D6
:10588000030E03EB8E038342CFD91460A7E706997A
:1058900032488B88EB800B882B81334A0094042399
:1058A000BDF8124000F0CAFC08B10E24E8E52F4B09
:1058B00004EB840403EB84040123237479E4029B46
:1058C00003F10801A6E723463B440CEB83030122C6
:1058D0001A746EE401F1080273E60023C1E40124A6
:1058E0002046A7003A190CEB8202DAF8043051681E
:1058F000AAF8020001F5805563B35A88033203EB1E
:105900008202AA421DD2136801331AD0538803338E
:1059100002EB83039D4214D34FF6FF7E90887045BF
:1059200003D0108800287FF467AE9D4209D91A6819
:1059300001321A4605D05888033003EB80039D429C
:10594000ECD23B190CEB830308335B68002B7FF42C
:105950000FAD25E701F10802D3E700BF881E002044
:10596000A0250020D4250020F0C0020060250020E2
:105970001C461846B5E700BF4068FFF77BBB00BF79
:105980000B685A1EB2F5A06F02D348F20710704799
:10599000202BF0B51CD8022200231A4CDFF870E04F
:1059A00054F82220DEF80060174F072B1AD90B2B72
:1059B0008CBF0424032426FA03F5ED0757F824408E
:1059C00012D401330E2B2244EFD148F20410F0BD63
:1059D000402BE0D9B3F5807F8BBF042203220C2338
:1059E0000823DAE70224E6E7084F012505FA03F366
:1059F0003A44026026EA0306CEF8006000200C60FC
:105A0000F0BD00BF20C1020004C10200DC2500205F
:105A1000E0350020054A064913686FEA93336FEAC0
:105A2000833301200870136000207047E0350020A8
:105A3000DC3500200A4B1B7813B948F20810704778
:105A400050B110B419B15DF8044BFFF799BF48F29B
:105A50000E105DF8044B704748F20E10704700BFFF
:105A6000DC350020114B1B78ABB1A0B130B4002164
:105A70000F4C104D0B46621890420DD0072B13D9D6
:105A80000B2B8CBF0422032255F8222001330E2B4E
:105A90001144F0D130BC704707480121026801FA77
:105AA00003F31A430260F5E70222EDE7DC3500203C
:105AB000DC25002004C10200E035002030B482B0B3
:105AC00050E8023F1FFAA3F5C488A54202BFBFF306
:105AD0002F8F00220DE0C48925448489A54228BF68
:105AE0002D1BC3EA054540E80254002CE8D14FF0D5
:105AF00001028DF803200193019B9DF803200B60A8
:105B000002F0FF032AB14B880068184402B030BC91
:105B10007047184602B030BC704700BF0A884B88F7
:105B20009A4201D00020704750E8022FC2EA224278
:105B300040E80223002BF7D101207047B8B130B400
:105B4000416882680468521AD2B2531E2160DBB2E7
:105B500042B101680A685C1E551C0D601370E3B207
:105B6000FF2BF6D103680020187130BC70470E205F
:105B7000704700BF70B582B002AB002503F8015D2D
:105B800004461846FFF7BEF9236861681A688A421E
:105B900010D9511E19602168A3680E68087912F89F
:105BA000015C228AE4689B1BDBB2984205FB02453C
:105BB00038BF0B719DF80700FFF7CCF9284602B0FB
:105BC00070BD00BF30B583B002AB002203F8012DD9
:105BD000054618460C46FFF795F92A681368591CC4
:105BE0001160E9682A8A641AB4FBF2F41C709DF80B
:105BF0000700FFF7AFF903B030BD00BF826802B9FC
:105C0000704710B50446436921680069984700232E
:105C1000A36010BD0EB400B582B0039929B102AAE9
:105C200004AB42F8043D00F089F802B05DF804EBE3
:105C300003B070472DE9F84F1746B9428A46064629
:105C40001D46DDF828B00B9A73D30B464FF00108C0
:105C5000B3FBF7F39F4208F10108F9D9A84538BF13
:105C6000A84612F0010902D1BBF1000F41D1B16881
:105C7000012402E0013D07FB04F4012DFAD8BAFB30
:105C8000F4F39F42F7D92C4D02E0B168BAFBF4F36C
:105C90004A1CB2603268E85C5054B0687268904246
:105CA00004FB13AA02D33046FFF7A8FFB4FBF7F4B6
:105CB000002CEAD1B9F1000F15D0BBF1000F12D0C2
:105CC000C34510D92024B3683268591CB160D4543C
:105CD000B26873689A420BF1FF3B06D2BBF1000F2A
:105CE00001D0C345EFD8BDE8F88F3046FFF786FFF7
:105CF000F4E7930718D42024C345B8D9B1683368B2
:105D00004A1CB2605C54B168736899420BF1FF3B66
:105D100005D2BBF1000FABD0C345F0D8A8E73046A1
:105D2000FFF76CFFB168F4E7002D14BF2024302486
:105D3000E2E74FF0010891E750C102002DE9F04F72
:105D40000D4685B0002900F0B2800B78DFF8E8A49A
:105D5000064691460135002B00F0A580252B40F02A
:105D6000A28129464FF000080D4611F8013B2D2B6A
:105D700000F09381302B00F093812B2B00F0858174
:105D80002A2B00F09E81A3F13002092A00F2BE8185
:105D90006A1C002404EB840403EB44042A2BA4F1C2
:105DA0003004154600F08E811378A3F130010929E3
:105DB00005F10102EED91A462E2A00F09081002743
:105DC00001E015F8012F02F0FB03682BF9D0253A0A
:105DD000532A63D8DFE812F02701620062006200F4
:105DE00062006200620062006200620062006200A3
:105DF0006200620062006200620062006200620093
:105E00006200620062006200620062006200620082
:105E10006200620062006200620062006200620072
:105E20006200620062006200620062006200620062
:105E300062006200620062006200620062004A0169
:105E40006200620062006200620062006200620042
:105E5000620062003601CE006200620062006200F1
:105E6000CE00620062006200620062006200A9006F
:105E7000620062006E0062005400620062004A012B
:105E8000D9F800301A1DC9F80020196800943B4663
:105E9000CDF8048030460A22FFF7CCFE01352B787E
:105EA000002B7FF457AF337B002B40F06C8105B0A3
:105EB000BDE8F08FD9F800301A1DC9F8002018F09D
:105EC000010F1F6840F02581002F00F0A5813846A2
:105ED00006F061F88046444515D9A4B14FF0200B77
:105EE00000E084B1B2683368511CB16003F802B0BD
:105EF000B26873689A4204F1FF3402D33046FFF768
:105F00007DFE4445EDD8013F17F8013F002BC5D079
:105F1000B2683168501CB0608B54B26873689A42A2
:105F2000F2D33046FFF76AFEEEE7D9F80020131DE2
:105F3000C9F80030B36831681468581C3022B0606A
:105F4000CA54B3687268934280F018813268581C52
:105F50007821B060D154B26873689A4280F00A81A7
:105F60000823002201922146009330461022FFF7B9
:105F700061FE93E7D9F800301A1DC9F80020D3F864
:105F800000B08BEAEB73A3EBEB73092B4FF001012D
:105F900008DD8AFB0302DB17C3EBA203092B01F127
:105FA0000101F6DCB94238BF394634B1BBF1000F0C
:105FB00002DB18F0040F00D0013C18F0020F40F093
:105FC000D58018F0010F18D1002C00F006818C420A
:105FD00013D94FF0200CB2683368501CB06003F83E
:105FE00002C0B26873689A4204F1FF3480F0F7800F
:105FF000002C00F0F2808C42EDD8BBF1000FC0F213
:106000000D8118F0040F40F0F48008F00303022B18
:1060100000F0BF808DE8100159463B4630460A2209
:10602000FFF708FE3AE7B3683268581C2521B060D4
:10603000D154B26873689A42FFF430AF3046FFF72C
:10604000DDFD2BE7D9F80020131DC9F80030B36837
:1060500031681278581CB060CA54B26873689A42AA
:10606000FFF41CAF3046FFF7C9FD17E7D9F8003041
:106070001A1DC9F80020196800943B46CDF8048029
:1060800030461022FFF7D6FD08E70D4611F8013B18
:106090002D2B48F004087FF46DAE48F0010863E64C
:1060A00048F0020860E6B2683168501CB0608B545A
:1060B000B26873689A42FFF4F2AE3046FFF79EFD75
:1060C000EDE60024D9F800301A1DC9F800206A78DE
:1060D0001B682E2A1C4405F101057FF470AE6A7816
:1060E000A2F13003092B05F101054FF000073FF63F
:1060F0006AAE07EB870702EB470715F8012FA2F1FD
:106100003003092BA7F13007F3D95CE61A460024C7
:1061100052E6B846C7EB080B18F8012B8AB1B168F4
:106120003368481CB0605A54B26873689A42F1D31D
:106130003046FFF763FDC7EB080B18F8012B002A68
:10614000EDD15C457FF6AAAE2027B3683268591CB2
:10615000B160D754B26873689A4204F1FF3402D335
:106160003046FFF74BFD5C45EFD897E6002F3FF434
:1061700044AF26E73046FFF741FDF1E63046FFF732
:106180003DFDB368E2E6304605B0BDE8F04FFFF7ED
:1061900035BD002F7FF43EAF002C3BD08C427FF604
:1061A00039AF4FF0300CB2683368501CB06003F860
:1061B00002C0B26873689A4204F1FF3403D24CB350
:1061C0008C42F0D826E73046CDF80CC00291FFF79C
:1061D00015FDDDF80CC00299F1E700240DE730460B
:1061E000CDF80CC00291FFF709FDDDF80CC0029953
:1061F000FEE6B268531CB36033682B209854B26833
:1062000073689A42FFF401AF30460291FFF7F6FC43
:106210000299FAE60024FDE6B8465CE6B268531C33
:10622000B36033682D209854B26873689A42CBF1FA
:10623000000BFFF4EAAEE7E7676666662DE9F04318
:10624000DDF81C8050B14AB1D0F800E0BEF1000F7B
:1062500007D01E4643B90920BDE8F0830E20BDE8F3
:10626000F0830820BDE8F0834768D7F80490B3FBBB
:10627000F9F709FB1737002FEDD142EA0104A40713
:1062800002D01020BDE8F083C468A142F9D301F127
:10629000FF3C04696644A642F3D8CDF81C80DEF8C2
:1062A0000C40A446BDE8F043604700BF28B1F0B5FC
:1062B000066876B11AB90920F0BD0E20704747680C
:1062C000D7F800C00CF1FF3739428E4603D01020BA
:1062D000F0BD0820F0BDC768B942F8D301F1FF3E18
:1062E00004690CFB02E5A542F1D83469A446BDE877
:1062F000F040604729DF704728DF7047034B0122D9
:10630000187A5A74B0FA80F040097047FC350020C2
:1063100030B5354D2B7A87B0002B51D0334B1C68EC
:1063200002232B722379002B2ED0012B20D0226840
:106330009368C3B100230593019303930493A36867
:106340000593032302932379002B44D0012B07D11B
:10635000E368616904911B03022103938DF8041023
:10636000936801A8984700232B726B6007B030BD7B
:106370002069E3681844FFF7BFFFC8B11128D6D1E0
:1063800001232B7207B030BDA16962692069E368FF
:10639000521AB2F5805F28BF4FF480529208012A4A
:1063A00038BF012208441944FFF7A4FF0028E5D1B3
:1063B0002B7C002BE6D10146022000F01DF8E1E71E
:1063C0000B480C49FFF77AFB084B0446186000287D
:1063D000A6D16860D6E70120216963698DF80400C1
:1063E00003910493BCE700BFFC350020F835002082
:1063F000E4350020F435002010B5354C237A012B0C
:1064000086B00AD0022B0CD1022810D0032804D168
:10641000E3680133082B1CD8E360637C1BB105F0F3
:1064200051FC06B010BDFFF773FF06B010BD294B3D
:1064300000221B68E2601A79002A3BD0012AECD1C5
:106440001A69596901328A421A61E6D10020207224
:1064500005E0204B00221B68E26022720D201968C3
:106460008A6872B1002205920192039204929A689E
:10647000029005921A79AAB1012A0AD08B6801A864
:10648000984715481549FFF749FB637C002BC6D197
:10649000C9E7DA685B6904931303022203938DF85A
:1064A0000420EBE71A695B69039201208DF8040070
:1064B0000493E3E79A695969881AB0F5805F94BF3D
:1064C000121802F5805291429A61A6D1BEE700BF30
:1064D000FC350020F8350020E4350020F43500209C
:1064E00000F0FD03012B00D0704730B5384C237A03
:1064F000A0F101000022B0FA80F0400987B02074BA
:106500006274002B48D0334B1D68022323722B7911
:10651000002B2ED0012B18D02A68936883B100235A
:106520000593019303930493AB68059303230293AC
:106530002B79002B44D0012B39D0936801A89847C0
:1065400000232372636007B030BD2869EB681844EC
:10655000FFF7D2FE28B11128DED10123237207B044
:1065600030BD237C002BFAD101460220FFF744FF07
:10657000F5E7A9696A692869EB68521AB2F5805F84
:1065800028BF4FF480529208012A38BF01220844E4
:106590001944FFF7AFFEDDE70F481049FFF78EFA09
:1065A0000C4B054618600028AFD16060D7E7EB6858
:1065B000696904911B03022103938DF80410BCE761
:1065C000012029696B698DF8040003910493B4E7F5
:1065D000FC350020F8350020E4350020F43500209B
:1065E000FFF7ACBA2DE9F041B0F81080A8F104082B
:1065F0004144CF1C0646FFF7BDFAB7FBF8F7044647
:1066000078B3FFB200250123013FA0F806800660A1
:106610000571437128D0804609E06379AF4203F1E8
:1066200001036371C8F80000066080461CD0304644
:10663000FFF7A0FA01350028EFD16679721E2346D4
:1066400003D0013082421B68FBD81F684EB1002581
:1066500023682146013538461C46FFF7B3FAAE429F
:10666000F6D10020BDE8F0812046BDE8F08100BFF2
:1066700010B40430012350E8002F02EB030140E87E
:10668000001494F0000FF6D15DF8044B704700BF82
:106690000146021DF8B5012052E8004FA4EB0003AB
:1066A00042E8003595F0000FF6D113F0FF0300D05B
:1066B000F8BD4E79701E0A4603D001339842126825
:1066C000FBD81768002EF3D000240D68013438463B
:1066D000FFF778FAA6422946F7D1F8BD2DE9F04137
:1066E0000446181DE688B0FBF6F30F46154606FB78
:1066F000130013B1013B2468FCD1321AAA4228BF0F
:106700002A468DB14FF000082044AD1A07EB08016E
:106710000430904405F02CFCB5422A46246828BF7A
:1067200032460020002DEFD1BDE8F0812DE9F04187
:10673000C688043304460F46B3FBF6F0154606FB45
:10674000103110B101382468FCD1721AAA4228BF56
:106750002A468DB14FF000082144AD1A043107EBF1
:106760000800904405F004FCB5422A46246828BF7E
:1067700032460021002DEFD1BDE8F08101600B68A9
:1067800043604A68934204BF00234360704700BFE0
:10679000426842B101688B68134443604A6893427F
:1067A00004BF002343607047184A30B402F1F0057B
:1067B000AB1ADB1003EBD3735B1002EBC30152F88F
:1067C0003330984228BF0C4605D311E052F83330DD
:1067D00098420CD221468B1ADB1003EBD3735B106B
:1067E000914202EBC304F1D8094830BC70470D4612
:1067F000984204D904F10802AA42D9D3F4E76068A8
:10680000034B002808BF1846EFE700BF68C402002A
:1068100058C5020000B1704710B5064CA3683BB1E3
:106820001A68A2605B6800209847A368002BF7D124
:1068300010BD00BF1036002010B5012882B02AD04C
:1068400023D303281FD10020072100F097F802A8C6
:106850000023264C00F8013DFEF754FBE368013BA2
:10686000E360E3685BB9224B01221A604FF080427B
:10687000D2F81834C3F30043002BF9D1A3709DF86C
:106880000700FEF767FB02B010BD1A4B0122C3F8E8
:10689000802002B010BD02A80023144C00F8013D76
:1068A000FEF730FB237893B9124A6360A36023613B
:1068B000E360106810F0010014D005F065FA20B90B
:1068C0004FF080430122C3F8182501232370E368A9
:1068D0009DF8070001330122E360A270FEF73AFB46
:1068E00002B010BD072100F049F8E6E7103600209D
:1068F0000C00004000E100E010B51D4B1A6882B0AA
:10690000F2B91C4B1A680AB902B010BD00221A6015
:106910001B6801934FF080430222174C0199C3F882
:10692000082323690122A270002BEDD01A6822618E
:106930005B68012098472369002BF7D102B010BD96
:1069400000221A601B6800934FF0804301220A4C1A
:106950000099C3F80823A3686270002BD1D01A688D
:10696000A2605B6800209847A368002BF7D1C8E7B6
:10697000000100400401004010360020002810B43F
:1069800018DB00F1604303F561434901C9B283F8A4
:106990000013C3B24009800000F1604000F561407F
:1069A00003F01F0201239340C0F8803103605DF8BB
:1069B000044B7047C3B2044A03F00F044901224458
:1069C000C9B21176E6E700BFFCEC00E030B51D4C23
:1069D00094F8545083B015B1082003B030BD4FF087
:1069E000FF33FF220620072123636363A363E3636E
:1069F00023646364A364E36423606360A360E3606F
:106A000023616361A361E361236284F850306362B0
:106A1000A36284F85230E36284F8533084F8512042
:106A2000FFF7ACFF084B094A1D601B6801930198F2
:106A30004FF000430121284684F85410C2F8043373
:106A400003B030BD243600207C610040006000406F
:106A5000034B93F85400003018BF0120704700BF6B
:106A600024360020F0B5634C251895F93030002B02
:106A700001DB0820F0BD91F803E09446BEF1000F61
:106A800056D02368013300F0AD80082600256B1C2A
:106A9000584F54F82320013251D0AB1C9E4245D9A7
:106AA00057F8232001324AD0EB1C9E423ED957F8BA
:106AB0002320013243D02B1D9E4237D957F8232083
:106AC00001323CD06B1D9E4230D957F823700137FC
:106AD00035D0AB1D9E4229D954F82320454F0132B1
:106AE0002DD0EB1D9E4221D957F82320013226D00C
:106AF00005F108039E4219D957F8232001321ED010
:106B000005F109039E4211D957F82320013216D00E
:106B100005F10A039E4209D957F8237001370ED0B8
:106B20000B35AE4202D9E36A013307D00420F0BD31
:106B3000236A01334ED00C260825A8E70B2326181C
:106B4000DDB244F823C086F83050BEF1000F02D108
:106B5000234483F848008B78ABB94A784FF0A046BD
:106B600000F5E073920046F82320CB78ABB96AB207
:106B7000083A1444097894F8502042EA811284F8C3
:106B800050201846F0BD830003F1A043D3F800273E
:106B900022F00202C3F80027E7E76BB29B0003F183
:106BA000804303F5C0430A78D3F8101521F4473128
:106BB00021F44071C3F810151204000202F44031B0
:106BC000D3F8104500F4F8520A432243C3F81025C5
:106BD0000020F0BD082685F830603346C4F820C098
:106BE0003546B5E7002385F83030C4F800C01D46AF
:106BF000B1E700BF24360020F0B42E4D2E1882B02D
:106C000096F8302053B2072B1CDD2B4493F8483004
:106C10009B09032B40D0012B0CBF4FF400314FF4E4
:106C20004031800000F1A040D0F8002722F440322B
:106C3000C0F80027D0F800370B43C0F8003702B087
:106C4000F0BC7047072AFAD8980000F1804000F5A0
:106C5000C04003F140029200D0F8104592B202F118
:106C60008042002744F0010402F5C042C0F81045FC
:106C70000197019817600029E1D096F9302055F866
:106C80002220002ADBD001220B4902FA03F3C1F8CB
:106C9000043302B0F0BC70474FF0A043D3F8103576
:106CA000C34013F0010F14BF4FF440314FF40031D3
:106CB000B7E700BF24360020006000404FF0A0433B
:106CC000D3F8103523FA00F000F00100704700BF40
:106CD0002DE9F04786B00026A24B01961A68012ADA
:106CE00000F03281A04B1A68012A00F01F819F4BEF
:106CF0001A68012A00F00C819D4B1A68012A00F0E5
:106D0000F9809C4B1A68012A00F0E6809A4B1A68B9
:106D1000012A00F0D380994B1A68012A00F0C08044
:106D2000974B1A68012A00F0AD80964B1A68012A29
:106D300000F09B8016F0FF0F1AD0934F012500241E
:106D4000A30003F18043354203F5C0434FEA4505F4
:106D50000BD0D3F8100557F82420D3F81015C0F342
:106D60000420C1F3014102B190470134082CE7D15E
:106D7000002E02DB06B0BDE8F087844D00224FF004
:106D8000FF33A5F1530702920393814C4FF00008A3
:106D9000012614F8011FFF292BD0C9B221F0C00031
:106DA00006AB4FEAD00E03EB0E0201F0070312F818
:106DB0000CCC06FA03F31CEA030F1AD007EB000C05
:106DC00089099CF930C057F82CC0BCF1000F3CD0A9
:106DD00003293CD04FEA800E0EF1A04E12F8149C0D
:106DE000DEF8002719EA030FC2F3014211D1032A8A
:106DF00036D0AC42CDD1B8F1000FBBD04FF0A0439C
:106E0000019AD3F810359342B4D0029A01930392B9
:106E1000BBE7022AEDD1032904D0BCF1000FE8D072
:106E2000E047E6E74FF44039DEF8002722F440322D
:106E3000CEF80027DEF8003708F1010849EA03031D
:106E40005FFA88F8CEF80037E7E70329D1D10DF1D2
:106E5000080A1AF80E9049EA03090AF80E90B9E7F1
:106E60000329DAD14FF40039DEE700221A601B68EB
:106E700005934FF0A043059AD3F81035019346F0DF
:106E8000004657E7434AD2F8042312067FF54DAF78
:106E900000221A601B680493049B46F0800644E7B6
:106EA0003C4AD2F8042351067FF53AAF00221A601B
:106EB0001B680493049B46F0400631E7354AD2F83C
:106EC000042390067FF527AF00221A601B68049305
:106ED000049B46F020061EE72E4AD2F80423D4066F
:106EE0007FF514AF00221A601B680493049B46F0E0
:106EF00010060BE7274AD2F8042315077FF501AFE8
:106F000000221A601B680493049B46F00806F8E60A
:106F1000204AD2F8042357077FF5EEAE00221A600C
:106F20001B680493049B46F00406E5E6194AD2F870
:106F3000042392077FF5DBAE00221A601B680493DE
:106F4000049B46F00206D2E61249D1F8041311F070
:106F5000010105D01E601B680493049B1646C1E620
:106F60000E46BFE600610040046100400861004039
:106F70000C61004010610040146100401861004045
:106F80001C6100407C6100402436002077360020E0
:106F90007336002000600040F0B50479724E640141
:106FA000331987B0DD7E183315B1082007B0F0BD66
:106FB0004D7F1D710D686B1C0BD04FF0A047012356
:106FC000AB40C7F808350B6803F5E073032547F8B5
:106FD00023504B685F1C06D003F5E0734FF0A045CB
:106FE000002745F82370037906EB43131B7F002B22
:106FF0004DD003688D69C3F824550F7D4B7D05681E
:107000003B43C5F86C3503680F684D68C3F80C75D1
:10701000C3F814550B7D012B00F09B8033190546F6
:107020005A600B6950483351EAB12B79097F2A68BD
:1070300000EB4310037F002B65D1C2F81C31D2F85E
:107040001C712A680197019FC2F84431D2F844218B
:107050002B6846480092009AC3F80403286840F35E
:107060000730FFF78BFC2B792A6806EB43131B7F55
:10707000002B44D00823C2F80035344400200121FD
:10708000E075A0752076A076E17607B0F0BD0568C2
:107090008F69C5F8247591F814E04D7D07684EEAB4
:1070A0000505C7F86C550568D1F800E04F68C5F8CC
:1070B0001475C5F80CE50D7D012DAFD18D686F1CE1
:1070C00005D005F5E0754FF0A04747F82530CB68AF
:1070D0005D1C0DD001254FF0A04705FA03F3C7F85A
:1070E0000835CB6803F5E073032547F82350CB68D8
:1070F00005688F68C5F80835C5F810758EE7042354
:10710000C2F80035B9E70023C2F81031D2F8107187
:107110002A680597059FC2F82031D2F820712A68A5
:107120000497049FC2F82431D2F824712A68039787
:10713000039FC2F84431D2F844212B6802920C48D4
:10714000029AC3F80403286840F30730FFF716FCDF
:1071500089E78B685D1CBAD003F5E0734FF0A0455A
:10716000002745F82370B2E77C360020800002003B
:1071700010030200F0B503793D4A04685B01D118A1
:10718000097F00296DD00021C4F80015D118384CB2
:107190004968B1B1017904EB4114217F002963D121
:1071A0000168344CC1F808430168334E090B4CB2F6
:1071B0006409203401F01F01012505FA01F146F8A8
:1071C00024100179076802EB4111D7F80C65097F9B
:1071D000D7F814554FF0FF3EA9B3D7F80815D7F8E4
:1071E0001045C7F80CE5C7F814E50068C0F808E5D5
:1071F000C0F810E5771C06D006F5E0764FF0A04009
:10720000022740F826706E1C06D005F5E0754FF099
:10721000A040022640F82560651C06D004F5E07405
:107220004FF0A040022540F82450481C06D001F53C
:10723000E0714FF0A040022440F8214013440022A6
:10724000DA765A60F0BDD7F80815D7F81045C7F8B8
:1072500014E5C7F80CE50068C0F808E5C0F810E5CB
:10726000C8E7C4F8001591E70168044C9AE700BF2D
:107270007C3600208402020000E100E010030200DE
:107280002DE9F04103795A4D5B01EC1886B0247F5B
:1072900044B101F06044B4F1005F03D0102006B0A7
:1072A000BDE8F0812B44DFF848E19F7D1FB111203C
:1072B00006B0BDE8F08199609A759F8206797601E3
:1072C0000EEB06010B7F2BBB0268C2F81C31D2F813
:1072D0001C41026805940124059F94600468D1F85C
:1072E00008C0C4F81C31D4F81C310493049B8F8A65
:1072F0008B8AD1F804E0BFB201331CF807709BB24F
:107300008B82C4F81C75BEF1000F33D0002006B08C
:10731000BDE8F08103688A68C3F82071D3F8204182
:1073200003680294029CC3F85871D3F8584103686B
:1073300001948C7D019FC3F84425C3F84845036838
:1073400001229A604B68002BE0D1026801E0002B1B
:107350004CD1D2F82011D2F85831003318BF012394
:107360000029F4D0002B0CBF00200F20AB19002205
:107370009A7594E78F7D8B8A01F110029BB2BB4214
:1073800026D2046804E093889BB2B3F5807F05D0D1
:10739000D4F81C3101F11002002BF4D001F11002DD
:1073A00093889BB2B3F5807FE5D0C4F81CE1D4F894
:1073B0001C310393039BB2F8048093881FFA88F86A
:1073C00001331CF808809BB29380C4F81C85D2E777
:1073D00093889BB2B3F5807F08D00268D2F81C3145
:1073E000002BFBD00123D3600020BFE70F20BDE7B7
:1073F0007C360020F0B59B4C237F8FB0002B75D1DD
:10740000994AD2F80413890548D4974BD3F804233A
:10741000520704D5D3F80821002A40F0CA80924BC5
:10742000D3F81C21C2B1A28AA07D8E4992B28242B9
:107430004FF00002C3F81C2180F0A980D3F81C2172
:107440000692069A888A8A8A8D6880B20132285C00
:1074500092B28A82C3F81C05834BD3F84421DAB177
:107460000022C3F84421D3F84411A27E0491049968
:10747000002A40F08980E27D7A4B6AB10022587E72
:10748000D968DA7501228DF830000B918DF828202B
:107490000AA893E8060090470FB0F0BDD2F8241177
:1074A0000029B2D0C2F82431D2F82411A37E07916A
:1074B0004FF401710798C2F808130BB90123536008
:1074C000694A02238DF82830D2F88034C2F880341B
:1074D000E07DE2680D9300238DF83000E37523769C
:1074E00021680B9263680AA8984798E75E4BD3F827
:1074F0002421002A40F09380D3F8101161B1C3F821
:107500001021D3F8101103910399D3F83C15E07DB5
:10751000C9B2884200F0AA80534BD3F84421B2B1DB
:107520000022C3F84421D3F84411E07D0191019970
:107530004C4960B1D3F83C35C8688DF83030012330
:10754000CA750B908DF828300AA80AC99847464B8F
:10755000D3F82021002A9FD00022C3F82021D3F89D
:107560002011A07D009100993E49002894D0D3F8C5
:107570004C058B688DF830008A750B938DF82820A8
:107580000AC90AA8984787E701221A6073E7D3F867
:107590001C310593059B00283FF45EAF8B688DF886
:1075A00030008A750B938DF828200AC90AA89847DD
:1075B00052E7E17D2B4A002970D00021C3F8081161
:1075C000D3F8081108910899D068517ED3F818357E
:1075D0004354537ED17D0133DBB25376627E214B1F
:1075E0008A427FF41CAF1A7E002A6DD19B7E13B9AC
:1075F0001D4B01225A601C4AE06863684FF4017118
:10760000C2F80813627E8DF83020002501220B900D
:107610002168E5758DF828200AA89847FFE6002222
:10762000C3F82421D3F82411029102218DF82810E7
:107630000299D3F88014C3F880140D91D3F83C1547
:10764000E368E27522768DF830100B932168636849
:107650000AA89847044BD3F84421002A3FF477AF97
:107660005EE700BF7C36002000200040217EF1B1A3
:10767000D3F80072E17527F02001E6682569C3F8A8
:10768000001201238DF830008DF828302276216811
:107690000B96E56063680AA898473DE7C3F80811B0
:1076A000D3F808210992099AD3F8183596E7E268C9
:1076B000E17501238DF830008DF828300B9294E8A5
:1076C0000A000AA8984727E7DE685D7E1869DA7520
:1076D00001210022D8601A765A768DF828100B9670
:1076E0008DF8305093E806000AA8904797E600BF4F
:1076F0003EDF7047704700BF704700BF08B513B149
:107700001846FCF701FE084B08491888000440F0B1
:107710000300FCF765F80649064B042001220870B7
:107720001A70002008BD00BF1C1E002094C5020076
:10773000F0480020E448002070B51378032B82B095
:1077400000F0D7800AD9802B18D0812B00F0C6809A
:10775000042B00F0AD80002002B070BD012B00F0C2
:10776000B280022BF7D1684B68491888000440F0BA
:107770000300FCF735F8002002B070BD624D288888
:1077800000040C4640F003006149FCF729F8288802
:107790006049000440F00300FCF722F82888A67A2C
:1077A000E17A227A637A0096000440F01300019196
:1077B0005949FCF769FA2888A67BE17B227B637B29
:1077C0000096000440F0130001915349FCF75CFA65
:1077D0002888A67CE17C227C637C0096000440F033
:1077E000130001914C49FCF74FFA2888A67DE17DF2
:1077F000227D637D0096000440F01300019147490B
:10780000FCF742FA28884649000440F00300FBF7E1
:10781000E7FF2888A67EE17E227E637E0096000434
:1078200040F0130001913C49FCF72EFA2888A67F0E
:10783000E17F227F637F0096000440F013000191F6
:107840003549FCF721FA288894F8231094F822602F
:1078500094F8202094F821300191000440F01300A6
:107860002D490096FCF710FA288894F8271094F810
:10787000265094F8242094F825300191000440F01B
:10788000130026490095FCF7FFF9264B26491A7884
:1078900003200870002A7FF45EAF4FF0A0414FF440
:1078A00080240120C1F80845C1F80C25187052E762
:1078B000154B1E491888000440F00300FBF790FFA9
:1078C000002002B070BD104B19491888000440F028
:1078D0000300FBF785FF002002B070BD0A4B15497D
:1078E0001888000440F00300FBF77AFF002002B084
:1078F00070BD054B10491888000440F00300FBF7E9
:107900006FFF002002B070BD1C1E00205CC602008C
:10791000A8C50200CCC50200E4C50200F8C50200FB
:107920000CC60200F1480020F0480020B0C602005A
:1079300028C60200E0C6020088C6020008B502F0B0
:107940000BF900B908BDBDE80840FCF7DDBC00BF7D
:10795000394B1B78042B04D8DFE803F01F2941566C
:10796000040070474FF0A0424FF480230021C2F87A
:107970000C35C2F80815D2F8043583F4F01313F46B
:10798000003351D12D49087840B34FF40030C2F88C
:107990000C05C2F808350B7070474FF0A0434FF448
:1079A000C0210022C3F80815C3F80C25704710B495
:1079B0004FF0A0434FF48024D3F80425D14301F4C1
:1079C000003102F400320020C3F80815C3F80C257A
:1079D000C3F80845C3F80C055DF8044B70474FF039
:1079E000A0434FF400310022C3F80C15C3F808255A
:1079F000D3F80425D14301F4802102F48022C3F896
:107A00000815C3F80C2570474FF0A04300224FF42F
:107A100000304FF48021C3F80C05C3F80825C3F8E3
:107A20000815C3F80C2570474FF40033C2F8083529
:107A3000C2F80C15704700BFF0480020E448002051
:107A4000134A1378A3B113490B780133DBB2052B2A
:107A50000B700ED94FF0A04010B400234FF48024D7
:107A600013700B70C0F80845C0F80C355DF8044B76
:107A700070474FF0A042D2F80435D94301F4802179
:107A800003F48023C2F80815C2F80C35704700BF14
:107A9000F1480020F248002038B5284C23880246DF
:107AA0000D46180440F003002549FBF757FF2B78DB
:107AB000012B27D00BD3022B08D1208821490004A9
:107AC00040F00300BDE83840FBF78ABE38BD20888F
:107AD0001D49000440F00300FBF782FE1B4802F042
:107AE000C1FD38BB19481A4943F2390202F022FE9F
:107AF000E8B91648174902F0FBFDA8B9164B032256
:107B00001A7038BD20881549000440F00300FBF7C7
:107B100067FE0E4802F0C0FD18B90F4B02221A7022
:107B200038BDFCF7F1FBF8E7FCF7EEFBE6E7FCF706
:107B3000EBFBDEE7FCF7E8FBD4E700BF1C1E0020F0
:107B400000C7020060C7020034C70200DC48002002
:107B5000FC610020FD760200F04800204CC70200C6
:107B600010B5047A012C0CD0022C23D1124B1349EE
:107B70001888000440F00300FBF732FE104B1C7025
:107B800010BD0D4C0F492088000440F00300FBF7A6
:107B900027FE0D4B186802F089FB08B1FCF7B4FB17
:107BA00020880A49000440F00300FBF719FE044B4B
:107BB00001221A7010BD00BF1C1E002080C70200E9
:107BC000F04800209CC702009C360020BCC7020081
:107BD000F0B5002085B0FBF77FFC08B1FCF794FB03
:107BE000FBF76CFC1020C021594AFCF7D1FB08B10F
:107BF000FCF78AFB00234FF4F0104FF0A041032262
:107C00000133202B40FA03F503F5E07404D0ED07AF
:107C100048BF41F82420F3E74FF0A0434FF4F011A0
:107C20000022C3F80815C3F80C25FCF7F7FF08B1CC
:107C3000FCF76AFB4748484A0121FDF7BBF808B149
:107C4000FCF762FB454801213322FCF7EFFA08B14B
:107C5000FCF75AFBFCF742FB08B1FCF755FB404C24
:107C600000210822204604F08EF93E493E4B216057
:107C70003E4A63602046012102F086FB08B1FCF712
:107C800043FB3A4C6946206802F01CFB002369461E
:107C900020688DF8053002F029FB08B1FCF734FBB1
:107CA0002068334902F03CFB08B1FCF72DFB304A59
:107CB000304B029202A8039302F006F908B1FCF7D8
:107CC00023FB2D4801F0A8F808B1FCF71DFB2B4859
:107CD00001F00AFF08B1FCF717FB29483321002205
:107CE000FDF77AF808B1FCF70FFB264E26493088DD
:107CF000264D000440F00300FBF772FD05F1080774
:107D0000308815F8012F2249000440F00300FBF7EA
:107D100025FEBD42F4D1206802F0C8FA08B1FCF794
:107D2000F3FA30881B49000440F00300FBF758FDCC
:107D3000194B01221A70FCF7C1FBFBF73BFC002832
:107D4000F9D1FFF7D5FC0028F5D0FCF7DDFAF2E712
:107D5000A4360020FCC702003D7902009C1D0020D3
:107D6000E8480020617B0200F57602009C36002086
:107D7000F4610020997A020039770200F4C702000A
:107D8000BC4800201C1E0020E0C70200F361002058
:107D9000F0C70200BCC70200F0480020D0F8E42081
:107DA000D0F8E0309A421BD02DE9F041D0F8E03015
:107DB00003F00F0303EB43039B0000F12005EA18D7
:107DC0000344C0F8E82000F11C0684B00446596A58
:107DD0001A8D304603F076FE18B904B0BDE8F08184
:107DE0007047224F03904FF000083B688DF80080E9
:107DF000694620469847D4F8E8301868FDF732FE07
:107E0000D4F8E030C4F8E8800133C4F8E030D4F8A6
:107E1000E420D4F8E0309A42DFD0D4F8E03003F028
:107E20000F0303EB43039B001D442344C4F8E850B5
:107E30003046596A1A8D03F045FE0028CDD00390D4
:107E40003B688DF80080694620469847D4F8E830B2
:107E50001868FDF707FED4F8E030C4F8E880013375
:107E6000C4F8E0302046FFF799FFB6E7E04900206C
:107E70002DE9F04FB04E33688DB09BB1AF4F4288C3
:107E8000FC8B0D4694424FF00001059114D02B78E5
:107E9000002B00F08180032B0AD0002420460DB077
:107EA000BDE8F08F4AF2802420460DB0BDE8F08F87
:107EB0000023D3F8E830FFDEB7F81CE001888E45D8
:107EC000E5D12A78032AE8D8DFE802F0163F1D0240
:107ED000D7F8E8301868FDF7C5FDD7F8E0309748C7
:107EE00001330024C7F8E030C7F8E840FFF756FF39
:107EF00020460DB0BDE8F08F03F01AFE00242046A6
:107F00000DB0BDE8F08F6B681B689A899B889A4218
:107F100028BF1A461346293305A806A902920693DC
:107F2000FDF788FD04460028B8D16B68059F1B68E3
:107F3000D3F80880089498F800205309032B5CD0EC
:107F40000B243846FDF78EFDA8E7022100228DF8AC
:107F500020100B92794808A99847BE69EC2404FBCD
:107F600006F404F1C0053D443C44206A08B1FDF725
:107F700079FD0C34AC42F8D1EC2206FB027738468E
:107F8000002104F000F800242046BE61FC83C7F8FD
:107F9000E8400DB0BDE8F08F6B685D68A9798DF899
:107FA000181095F805E08DF819E02D798DF81A5024
:107FB0004FF0FF0EFE258DF81BE08DF81C505D681C
:107FC000ED788DF81D505D68AD788DF81E505D68B8
:107FD0006D788DF81F505B681B7813F0FE0F0CBF97
:107FE00001F0FD0141F002018DF81810002C00F0A5
:107FF000048103F09DFD042450E798F90130002B23
:10800000C0F21D814FF0FF09CDF8009008F1020A7F
:10801000C2F3C102022A00F07281032A00F06981D2
:10802000012A00F053819AF80020C2F3830242F043
:1080300060023A709AF801209AF8001002F00F02DC
:1080400042EA811201F0C00142EA91027A700AF11B
:108050000201B81C022203F08BFF0AF1040A98F80F
:108060000020530706D49AF80020BA7198F800202F
:108070000AF1010A12F0030216BF31499AF80020F2
:108080008A5CFA7107F1180307F1080B1C464FF0E0
:1080900000014FF010025846019308BF0AF1010A8F
:1080A00003F071FF20460021102203F06CFF98F8C6
:1080B0000140C4F38013C4F3011463B3002C00F037
:1080C0003681022C00F09981032C07F1100040F05A
:1080D000288108221B4903F04BFF3A7C82F0020200
:1080E0003A741648009908AA01F066FB0446002875
:1080F00000F023814AF2402498F801B01BF0040FED
:1081000022D01BF0080F00F0B7801BF0030F00F027
:108110001F82059F14E7022C00F05881032C00F009
:108120004281012C00F02F815146102258461C46F6
:10813000924403F01DFFDFE7E0490020F4480020EF
:1081400008C80200FC4800201BF0080F0BF0030BCE
:108150007FD0BBF1020F00F0CA81BBF1030F00F02A
:10816000E281BBF1010F00F0D0815146102201984D
:10817000924403F0FDFE98F80020C2F38002002A2A
:1081800040F09A8093460299CAEB08020A4492B2E0
:108190009142BA80BDD30BF128005146384403F018
:1081A000E7FEB7F80480BB79D8441FFA88F898FA3C
:1081B00098F2112BBA8000F0208208F1280080B2DA
:1081C000002C40F02182AB68B3F5044F14BF0024AB
:1081D0004FF4044405999DF80030ADF828000322BF
:1081E0008DF82A30099133680B948DF82B908DF817
:1081F0002020D14808A9984750E6FA830388BB831A
:10820000FF233B747B7406A90822CC4803F0B0FE20
:10821000CB49C948082203F0ABFE2146C022C94819
:1082200003F0B1FE0122C7F8E0403368C7F8E4402C
:108230000B948DF82020C04808A998472EE698F89E
:1082400002904FEA191308F1030A009309F00F098D
:10825000DEE6BBF1020F019800F0A981BBF1030F2C
:1082600000F09481BBF1010F00F08481514610228F
:10827000924403F07DFE7EE70BF0030BBBF1020F8F
:1082800000F0FE80BBF1030F00F0ED80BBF1010FA9
:108290007FF43FAF5146082207F12000924403F0DB
:1082A00067FEA548494608AA01F086FA002800F0B2
:1082B000F8804AF240245EE79AF800B00BF0F8022A
:1082C000F02A00F0A9800B24059F3AE6514660226F
:1082D0003A7011F8012B02F0C00002F00F0242EADE
:1082E00090027A70B81C02220AF1030A03F040FEE1
:1082F000B5E60022602139707A707A80AFE69AF88C
:108300000020C2F3830242F060023A701AF8012B97
:1083100002F0C001920142EA910200217A70798054
:108320009DE651460822924403F022FED9E65846C3
:108330002146102203F027FEDEE608994A785846C7
:10834000D208043103F014FE0898427812F0070EA8
:1083500000F0A580D20807EB020C4FF47F419CF897
:1083600008B041FA0EF102442BEA010B12798CF8A5
:1083700008B0407807EBD0000A4090F808E042EAE5
:108380000E020272B8E658466F490393022203F0C8
:10839000EFFD039B5146082207F110001C46924452
:1083A00003F0E6FDA8E6684903930222584603F06D
:1083B000DFFD082207F11000604903F0D9FD3A7C87
:1083C000039B82F002021C463A7495E622465E49FF
:1083D0000393584603F0CCFD22465C4907F1130095
:1083E00003F0C6FD039B2246514607F116001C46CA
:1083F0000AF1020A03F0BCFD7EE65146224607F16F
:10840000160003F0B5FD224607F113004F490AF1AB
:10841000020A03F0ADFD64E60BF003021121022A0B
:10842000B9710AF1010100F00B81032A00F0F2801A
:10843000012A07F128004FF0020200F0D38003F078
:1084400097FD0AF1030107F12A0002220AF1050A49
:1084500003F08EFD1BF0040F00F0BC800022FA85B3
:108460004FF0080B8FE6082207F12000324903F095
:108470007FFD97F8202082F0020287F8202010E785
:1084800032495A4607F1230003F072FD51465A461D
:1084900007F1260003F06CFD0AF1020A01E77446B9
:1084A0002AE6089901984A780431D20803F060FD61
:1084B0000898427812F0070B3FF45DAED20807EB44
:1084C000020C4FF47F419CF818E0024441FA0BF192
:1084D0002EEA010E12798CF818E0407807EBD000F4
:1084E0000A4090F818E042EA0E02027643E651464E
:1084F000FF223A7611F8012B7A7607F12500032244
:108500000AF1040A03F034FD35E65146FF223A76BB
:1085100011F8012B7A7607F1230005220AF1060AE9
:1085200003F026FD27E60222FF2139767A761AF833
:10853000012B87F827201EE6F4480020FC48002085
:10854000E44900201449002004C8020000C80200C9
:10855000FF223A76514607F11900022203F008FD86
:108560000AF1020107F1240004220AF1060A03F0CD
:10857000FFFC00E63A49022203F0FAFC51460822C9
:1085800007F12000924403F0F3FCF4E534490222A1
:1085900003F0EEFC082207F12000324903F0E8FC6A
:1085A00097F8202082F0020287F82020E3E52C498A
:1085B0005A4603F0DDFC2C495A4607F1230003F02C
:1085C000D7FC51465A4607F1260003F0D1FC0AF1C8
:1085D000020AD0E55146022207F12E00924403F030
:1085E000C7FC3DE703F0C4FC9AF80320120242F0F6
:1085F000F0027A850AF1040A2CE707F12C00391DF4
:10860000022203F0B5FCD8E54AF240239C423FF435
:10861000E1AD59E69AF801201209120242F4304203
:1086200042F0F0023A859AF8012002F00F0212029D
:1086300042F4304242F0F0027A850AF1020A09E778
:108640009AF80110090241F0F001398507F12A007A
:108650000AF1020103F08CFC0AF1040AFAE600BFF9
:1086600004C80200F448002000C8020000B30168FA
:10867000F1B14368E3B130B5082283B004460E4837
:108680000E4D03F075FC0E4B62681A600021EC225F
:10869000284603F078FC02A80A4B40F8043D00236A
:1086A000EB83C5F8E830AB6103F0D4F903B030BD1B
:1086B0004AF20E20704700BFE4490020F448002031
:1086C000E0490020717E0200C04B1B6863B199B184
:1086D0002DE9F04F044691B048B1272A0FD84AF24D
:1086E000072011B0BDE8F08F4AF2802070474AF2AF
:1086F0000E2011B0BDE8F08F4AF20E20704790F8BE
:108700001080019200276023B8F1FF0F0D46D0F8CA
:1087100018A090F8119003978DF812708DF8103012
:1087200000F00582B9F1FF0F00F0E7803E46BB463E
:1087300047EA08178022B9F1FF0F8DF812708DF803
:10874000112000F0CA819DF8122049EA02028DF83A
:1087500012200DF113072A78697868881201D2B2C5
:1087600042EA11124FEA920E4EEA8212D2B2D3B20C
:10877000002800F0018101F00F01980600F06581EA
:1087800079703B70B81CA91C0222043703F0F0FB7F
:10879000AA79112A40F0FE809DF8102042F00402D0
:1087A0008DF81020EA79402A00F0A881FF2A00F015
:1087B0009E81012A00F094813A700137AA68002A4C
:1087C00040F0AC80EA68002A40F0A8802A69002ABC
:1087D00040F0A4806A69002A40F0A0809DF8113022
:1087E00043F040038DF811302A7EFF2A00F05381B8
:1087F000B9F1FF0F00F0898143F00403227A95F864
:10880000201082F0020291425BD0BBF1000F00F019
:108810002E8143F003038DF811309DF8103003F0E2
:10882000040303F0FF08002B40F0D480282004A9A3
:108830007F1ABAB2801A05EB0009484603F098FB8C
:10884000EC23634903FB0AFA01EB0A0000F1E00E96
:10885000D0F8E430D0F8E0209B1A0F2B00F29D8076
:10886000D0F8E4B0D0F8E460D0F8E430D0F8E420F8
:10887000D0F8E84006F00F0C0BF00F0B03F00F03DD
:10888000019E0BEB4B0B0CEB4C0C03EB4303283E14
:108890000AEB8B0B0AEB8C0C0AEB8303C8EB060686
:1088A0008B448C440B4437440132CBF82490ACF811
:1088B00028701D62C0F8E420002C00F070820020B7
:1088C0000FE7296AA26821F0FF0122F0FF0291421E
:1088D0009BD195F82410227B8A4296D195F82310DB
:1088E000FF2992D1FE2A90D1E268696A22F0FF0244
:1088F00021F0FF01914288D18BE701F11809494627
:1089000003AA00F0DBFE002800F015823E469DF829
:1089100012704FF0000B4FF0FF0909E7B8F1FF0F9D
:1089200000F0D3809DF8112042F040022178287C8D
:1089300081F00201884205D096B342F030038DF8F1
:10894000113051E72869216820F0FF0021F0FF0174
:108950008842F1D1287D21798142EDD1E87CFF2840
:10896000EAD1FE29E8D16869616820F0FF0021F0B2
:10897000FF018842E0D1E0E711F00F017FF4FDAE86
:108980009DF81020002B40F0128142F018028DF863
:108990001020FDE63A70013704E74AF24120A0E6D4
:1089A0002B69B3F17F4F03D1AB8AFE2B00F0DD8141
:1089B00042F010033846082205F110018DF81130FD
:1089C000174403F0D5FA9DF811300DE7E049002077
:1089D000F4480020AB79112B40F0A580298D4BBACB
:1089E0009BB223F00F02384692B24FF2B0044FF020
:1089F000F00EA2424FEA112100F801EB00F0DF80F7
:108A000003F47F43B3F5704F00F09F816B8D5BBA29
:108A100003F47F43B3F5704F00F0E78005F12801C0
:108A2000022203F0A5FAF81C05F12A01022203F044
:108A30009FFA05373846022205F12E0117444FF000
:108A4000080803F095FA3020F1E69DF810E038466A
:108A500022F03F020A434EF0080E8DF810E0A91CE8
:108A600000F8012B022203F083FA033790E62A6A0A
:108A7000B2F17F4F03D1AA8CFE2A00F0848143F02B
:108A800001030822384605F120018DF81130174402
:108A900003F06EFAC1E643F00801B9F1FF0F8DF85B
:108AA000111058D043F00C032A7605F1190138460D
:108AB00002228DF8113003F05BFAB81C05F1240195
:108AC0000422063703F054FAA7E6298948F2FE0289
:108AD000914262D19DF8112028E70DF113073AE683
